{
  "contractName": "Account",
  "abi": [
    {
      "constant": false,
      "inputs": [],
      "name": "createPlanter",
      "outputs": [],
      "payable": false,
      "stateMutability": "nonpayable",
      "type": "function"
    },
    {
      "constant": false,
      "inputs": [],
      "name": "createAsker",
      "outputs": [],
      "payable": false,
      "stateMutability": "nonpayable",
      "type": "function"
    },
    {
      "constant": true,
      "inputs": [],
      "name": "getPlanterCounter",
      "outputs": [
        {
          "name": "",
          "type": "uint256"
        }
      ],
      "payable": false,
      "stateMutability": "view",
      "type": "function"
    },
    {
      "constant": true,
      "inputs": [],
      "name": "getAskerCounter",
      "outputs": [
        {
          "name": "",
          "type": "uint256"
        }
      ],
      "payable": false,
      "stateMutability": "view",
      "type": "function"
    },
    {
      "constant": true,
      "inputs": [
        {
          "name": "owner",
          "type": "address"
        }
      ],
      "name": "getPlanterIndex",
      "outputs": [
        {
          "name": "",
          "type": "uint256"
        }
      ],
      "payable": false,
      "stateMutability": "view",
      "type": "function"
    },
    {
      "constant": true,
      "inputs": [
        {
          "name": "owner",
          "type": "address"
        }
      ],
      "name": "getAskerIndex",
      "outputs": [
        {
          "name": "",
          "type": "uint256"
        }
      ],
      "payable": false,
      "stateMutability": "view",
      "type": "function"
    },
    {
      "constant": true,
      "inputs": [
        {
          "name": "index",
          "type": "uint256"
        }
      ],
      "name": "getPlanterAddress",
      "outputs": [
        {
          "name": "",
          "type": "address"
        }
      ],
      "payable": false,
      "stateMutability": "view",
      "type": "function"
    },
    {
      "constant": true,
      "inputs": [
        {
          "name": "index",
          "type": "uint256"
        }
      ],
      "name": "getAskerAddress",
      "outputs": [
        {
          "name": "",
          "type": "address"
        }
      ],
      "payable": false,
      "stateMutability": "view",
      "type": "function"
    },
    {
      "constant": true,
      "inputs": [
        {
          "name": "index",
          "type": "uint256"
        }
      ],
      "name": "getPlanterOwnedTreeCounter",
      "outputs": [
        {
          "name": "",
          "type": "uint256"
        }
      ],
      "payable": false,
      "stateMutability": "view",
      "type": "function"
    },
    {
      "constant": true,
      "inputs": [
        {
          "name": "index",
          "type": "uint256"
        }
      ],
      "name": "getPlanterTreeCounter",
      "outputs": [
        {
          "name": "",
          "type": "uint256"
        }
      ],
      "payable": false,
      "stateMutability": "view",
      "type": "function"
    },
    {
      "constant": true,
      "inputs": [
        {
          "name": "index",
          "type": "uint256"
        }
      ],
      "name": "getAskerOwnedTreeCounter",
      "outputs": [
        {
          "name": "",
          "type": "uint256"
        }
      ],
      "payable": false,
      "stateMutability": "view",
      "type": "function"
    },
    {
      "constant": true,
      "inputs": [
        {
          "name": "index",
          "type": "uint256"
        }
      ],
      "name": "getPlanterOrderCounter",
      "outputs": [
        {
          "name": "",
          "type": "uint256"
        }
      ],
      "payable": false,
      "stateMutability": "view",
      "type": "function"
    },
    {
      "constant": true,
      "inputs": [
        {
          "name": "index",
          "type": "uint256"
        }
      ],
      "name": "getAskerOrderCounter",
      "outputs": [
        {
          "name": "",
          "type": "uint256"
        }
      ],
      "payable": false,
      "stateMutability": "view",
      "type": "function"
    },
    {
      "constant": true,
      "inputs": [
        {
          "name": "index",
          "type": "uint256"
        }
      ],
      "name": "getAskerCreateOrderCounter",
      "outputs": [
        {
          "name": "",
          "type": "uint256"
        }
      ],
      "payable": false,
      "stateMutability": "view",
      "type": "function"
    },
    {
      "constant": true,
      "inputs": [
        {
          "name": "planter",
          "type": "uint256"
        },
        {
          "name": "index",
          "type": "uint256"
        }
      ],
      "name": "getPlanterTree",
      "outputs": [
        {
          "name": "",
          "type": "uint256"
        }
      ],
      "payable": false,
      "stateMutability": "view",
      "type": "function"
    },
    {
      "constant": true,
      "inputs": [
        {
          "name": "planter",
          "type": "uint256"
        },
        {
          "name": "index",
          "type": "uint256"
        }
      ],
      "name": "getPlanterOwnedTree",
      "outputs": [
        {
          "name": "",
          "type": "uint256"
        },
        {
          "name": "",
          "type": "bool"
        }
      ],
      "payable": false,
      "stateMutability": "view",
      "type": "function"
    },
    {
      "constant": true,
      "inputs": [
        {
          "name": "asker",
          "type": "uint256"
        },
        {
          "name": "index",
          "type": "uint256"
        }
      ],
      "name": "getAskerOwnedTree",
      "outputs": [
        {
          "name": "",
          "type": "uint256"
        },
        {
          "name": "",
          "type": "bool"
        }
      ],
      "payable": false,
      "stateMutability": "view",
      "type": "function"
    },
    {
      "constant": true,
      "inputs": [
        {
          "name": "planter",
          "type": "uint256"
        },
        {
          "name": "index",
          "type": "uint256"
        }
      ],
      "name": "getPlanterOrder",
      "outputs": [
        {
          "name": "",
          "type": "uint256"
        }
      ],
      "payable": false,
      "stateMutability": "view",
      "type": "function"
    },
    {
      "constant": true,
      "inputs": [
        {
          "name": "asker",
          "type": "uint256"
        },
        {
          "name": "index",
          "type": "uint256"
        }
      ],
      "name": "getAskerOrder",
      "outputs": [
        {
          "name": "",
          "type": "uint256"
        }
      ],
      "payable": false,
      "stateMutability": "view",
      "type": "function"
    },
    {
      "constant": true,
      "inputs": [
        {
          "name": "asker",
          "type": "uint256"
        },
        {
          "name": "index",
          "type": "uint256"
        }
      ],
      "name": "getAskerCreateOrder",
      "outputs": [
        {
          "name": "",
          "type": "uint256"
        }
      ],
      "payable": false,
      "stateMutability": "view",
      "type": "function"
    }
  ],
  "bytecode": "0x60806040526001600055600160035534801561001a57600080fd5b50610f198061002a6000396000f300608060405260043610610112576000357c0100000000000000000000000000000000000000000000000000000000900463ffffffff16806302cf1b95146101175780630d1921171461016d5780631af7118f146101b857806338e5b7af146101f95780633f9819b51461023a5780635774fe8214610291578063588713a6146102fe57806360b150651461033f57806361f4fec11461038a5780638dc6a650146103cb5780639756fa81146103e25780639bc590091461042d578063a53977cb14610484578063ac864daa146104c5578063afe8714b14610506578063b37ed53b1461051d578063d59cbd1b14610548578063dbf252891461059e578063e0034121146105c9578063fe12045714610636575b600080fd5b34801561012357600080fd5b5061014c6004803603810190808035906020019092919080359060200190929190505050610681565b60405180838152602001821515151581526020019250505060405180910390f35b34801561017957600080fd5b506101a2600480360381019080803590602001909291908035906020019092919050505061070e565b6040518082815260200191505060405180910390f35b3480156101c457600080fd5b506101e360048036038101908080359060200190929190505050610756565b6040518082815260200191505060405180910390f35b34801561020557600080fd5b5061022460048036038101908080359060200190929190505050610789565b6040518082815260200191505060405180910390f35b34801561024657600080fd5b5061027b600480360381019080803573ffffffffffffffffffffffffffffffffffffffff1690602001909291905050506107b9565b6040518082815260200191505060405180910390f35b34801561029d57600080fd5b506102bc60048036038101908080359060200190929190505050610850565b604051808273ffffffffffffffffffffffffffffffffffffffff1673ffffffffffffffffffffffffffffffffffffffff16815260200191505060405180910390f35b34801561030a57600080fd5b50610329600480360381019080803590602001909291905050506108a3565b6040518082815260200191505060405180910390f35b34801561034b57600080fd5b5061037460048036038101908080359060200190929190803590602001909291905050506108d5565b6040518082815260200191505060405180910390f35b34801561039657600080fd5b506103b56004803603810190808035906020019092919050505061091d565b6040518082815260200191505060405180910390f35b3480156103d757600080fd5b506103e0610950565b005b3480156103ee57600080fd5b506104176004803603810190808035906020019092919080359060200190929190505050610adc565b6040518082815260200191505060405180910390f35b34801561043957600080fd5b5061046e600480360381019080803573ffffffffffffffffffffffffffffffffffffffff169060200190929190505050610b27565b6040518082815260200191505060405180910390f35b34801561049057600080fd5b506104af60048036038101908080359060200190929190505050610bbe565b6040518082815260200191505060405180910390f35b3480156104d157600080fd5b506104f060048036038101908080359060200190929190505050610bf0565b6040518082815260200191505060405180910390f35b34801561051257600080fd5b5061051b610c1f565b005b34801561052957600080fd5b50610532610da9565b6040518082815260200191505060405180910390f35b34801561055457600080fd5b5061057d6004803603810190808035906020019092919080359060200190929190505050610db6565b60405180838152602001821515151581526020019250505060405180910390f35b3480156105aa57600080fd5b506105b3610e43565b6040518082815260200191505060405180910390f35b3480156105d557600080fd5b506105f460048036038101908080359060200190929190505050610e50565b604051808273ffffffffffffffffffffffffffffffffffffffff1673ffffffffffffffffffffffffffffffffffffffff16815260200191505060405180910390f35b34801561064257600080fd5b5061066b6004803603810190808035906020019092919080359060200190929190505050610ea2565b6040518082815260200191505060405180910390f35b60008061068d84610756565b8310151561069a57600080fd5b6005600085815260200190815260200160002060000160040160008481526020019081526020016000206000015460056000868152602001908152602001600020600001600401600085815260200190815260200160002060010160009054906101000a900460ff16915091509250929050565b600061071983610789565b8210151561072657600080fd5b60056000848152602001908152602001600020600701600083815260200190815260200160002054905092915050565b60006003548210151561076857600080fd5b60056000838152602001908152602001600020600001600101549050919050565b60006003548210151561079b57600080fd5b60056000838152602001908152602001600020600601549050919050565b600080600460008473ffffffffffffffffffffffffffffffffffffffff1673ffffffffffffffffffffffffffffffffffffffff168152602001908152602001600020541415151561080957600080fd5b600460008373ffffffffffffffffffffffffffffffffffffffff1673ffffffffffffffffffffffffffffffffffffffff168152602001908152602001600020549050919050565b60006003548210151561086257600080fd5b6005600083815260200190815260200160002060000160000160009054906101000a900473ffffffffffffffffffffffffffffffffffffffff169050919050565b60008054821015156108b457600080fd5b60026000838152602001908152602001600020600001600201549050919050565b60006108e083610bf0565b821015156108ed57600080fd5b60026000848152602001908152602001600020600701600083815260200190815260200160002054905092915050565b60006003548210151561092f57600080fd5b60056000838152602001908152602001600020600001600201549050919050565b6000600460003373ffffffffffffffffffffffffffffffffffffffff1673ffffffffffffffffffffffffffffffffffffffff1681526020019081526020016000205414151561099e57600080fd5b6060604051908101604052806060604051908101604052803373ffffffffffffffffffffffffffffffffffffffff16815260200160008152602001600081525081526020016003548152602001600081525060056000600354815260200190815260200160002060008201518160000160008201518160000160006101000a81548173ffffffffffffffffffffffffffffffffffffffff021916908373ffffffffffffffffffffffffffffffffffffffff160217905550602082015181600101556040820151816002015550506020820151816005015560408201518160060155905050600354600460003373ffffffffffffffffffffffffffffffffffffffff1673ffffffffffffffffffffffffffffffffffffffff16815260200190815260200160002081905550600360008154809291906001019190505550565b6000610ae7836108a3565b82101515610af457600080fd5b60026000848152602001908152602001600020600001600301600083815260200190815260200160002054905092915050565b600080600160008473ffffffffffffffffffffffffffffffffffffffff1673ffffffffffffffffffffffffffffffffffffffff1681526020019081526020016000205414151515610b7757600080fd5b600160008373ffffffffffffffffffffffffffffffffffffffff1673ffffffffffffffffffffffffffffffffffffffff168152602001908152602001600020549050919050565b6000805482101515610bcf57600080fd5b60026000838152602001908152602001600020600001600101549050919050565b6000805482101515610c0157600080fd5b60026000838152602001908152602001600020600601549050919050565b6000600160003373ffffffffffffffffffffffffffffffffffffffff1673ffffffffffffffffffffffffffffffffffffffff16815260200190815260200160002054141515610c6d57600080fd5b6060604051908101604052806060604051908101604052803373ffffffffffffffffffffffffffffffffffffffff168152602001600081526020016000815250815260200160005481526020016000815250600260008054815260200190815260200160002060008201518160000160008201518160000160006101000a81548173ffffffffffffffffffffffffffffffffffffffff021916908373ffffffffffffffffffffffffffffffffffffffff160217905550602082015181600101556040820151816002015550506020820151816005015560408201518160060155905050600054600160003373ffffffffffffffffffffffffffffffffffffffff1673ffffffffffffffffffffffffffffffffffffffff168152602001908152602001600020819055506000808154809291906001019190505550565b6000600160035403905090565b600080610dc284610bbe565b83101515610dcf57600080fd5b6002600085815260200190815260200160002060000160040160008481526020019081526020016000206000015460026000868152602001908152602001600020600001600401600085815260200190815260200160002060010160009054906101000a900460ff16915091509250929050565b6000600160005403905090565b6000805482101515610e6157600080fd5b6002600083815260200190815260200160002060000160000160009054906101000a900473ffffffffffffffffffffffffffffffffffffffff169050919050565b6000610ead8361091d565b82101515610eba57600080fd5b600560008481526020019081526020016000206000016003016000838152602001908152602001600020549050929150505600a165627a7a723058206a88d634614906e576fb0cd7d371ad3079461895d56d2ee9cca37acbeb16be850029",
  "source": "pragma solidity ^0.4.17;\ncontract Account{\n    struct OwnedIndex {\n        uint index;\n        bool active;\n    }\n\n    struct Account {\n        address owner;\n        uint treeCounter;\n        uint orderCounter;\n\n        mapping (uint=>uint) orders;\n        mapping (uint=>OwnedIndex) ownedTree;\n    }\n    //种树请求者\n    struct Asker{\n        Account account;\n        uint askId;\n        uint orderCounter;\n        mapping (uint=>uint) sendOrder;\n    }\n    //种树人\n    struct Planter{\n        Account account;\n        uint plantId;\n        uint treeCounter;\n        mapping (uint=>uint) plantedTree;    \n    }\n    //种树人的信息列表\n    uint internal planterCounter = 1;\n    mapping (address => uint) internal planterIndex;\n    mapping (uint=>Planter) internal planters;\n    //种树请求者列表\n    uint internal askerCounter = 1;\n    mapping (address=>uint) internal askerIndex;\n    mapping (uint=>Asker) internal askers;\n\n    modifier validPlanter(uint index) {\n        require(index < planterCounter);\n        _;\n    }\n\n    modifier validAsker(uint index) {\n        require(index < askerCounter);\n        _;\n    }\n\n    function createPlanter() public {\n        require(planterIndex[msg.sender] == 0);\n        planters[planterCounter] = Planter(Account(msg.sender, 0, 0), planterCounter, 0);\n        planterIndex[msg.sender] = planterCounter;\n        planterCounter ++;\n    }\n\n    function createAsker() public {\n        require(askerIndex[msg.sender] == 0);\n        askers[askerCounter] = Asker(Account(msg.sender, 0, 0), askerCounter, 0);\n        askerIndex[msg.sender] = askerCounter;\n        askerCounter ++;\n    }\n\n    function getPlanterCounter() public view returns (uint){\n        return planterCounter - 1;\n    }\n\n    function getAskerCounter() public view returns (uint) {\n        return askerCounter - 1;\n    }\n\n    //获取种树人的序号\n    function getPlanterIndex(address owner) public view returns (uint) {\n        require(planterIndex[owner] != 0);\n        return planterIndex[owner];\n    }\n    //获取种树请求者序号\n    function getAskerIndex(address owner) public view returns (uint) {\n        require(askerIndex[owner] != 0);\n        return askerIndex[owner];\n    }\n    //树农地址\n    function getPlanterAddress(uint index) public view returns (address) {\n        require(index < planterCounter);\n        return planters[index].account.owner;\n    }\n    //种树请求者地址\n    function getAskerAddress(uint index) public view returns (address) {\n        require(index < askerCounter);\n        return askers[index].account.owner;\n    }\n    //在树农名下的树的总量\n    function getPlanterOwnedTreeCounter(uint index) public view returns (uint) {\n        require(index < planterCounter);\n        return planters[index].account.treeCounter;\n    }\n    //树农种下的树的总量\n    function getPlanterTreeCounter(uint index) public view returns (uint) {\n        require(index < planterCounter);\n        return planters[index].treeCounter;\n    }\n    //在种树请求者名下的树的总量\n    function getAskerOwnedTreeCounter(uint index) public view returns (uint) {\n        require(index < askerCounter);\n        return askers[index].account.treeCounter;\n    }\n    \n    function getPlanterOrderCounter(uint index) public view returns (uint) {\n        require(index < planterCounter);\n        return planters[index].account.orderCounter;\n    }\n\n    function getAskerOrderCounter(uint index) public view returns (uint) {\n        require(index < askerCounter);\n        return askers[index].account.orderCounter;\n    }\n    //获取种树请求者发起的交易数\n    function getAskerCreateOrderCounter(uint index) public view returns (uint) {\n        require(index < askerCounter);\n        return askers[index].orderCounter;\n    }\n    //获取当前种树人\n    function getPlanter(uint index) internal view returns (Planter) {\n        require(index < planterCounter);\n        return planters[index];\n    }\n    //获取当前种树请求者\n    function getAsker(uint index) internal view returns (Asker) {\n        require(index < askerCounter);\n        return askers[index];\n    }\n    //获取种树人种下的指定树\n    function getPlanterTree(uint planter, uint index) public view returns (uint) {\n        require(index < getPlanterTreeCounter(planter));\n        return planters[planter].plantedTree[index];\n    }\n    //获取种树人名下的指定树\n    function getPlanterOwnedTree(uint planter, uint index) public view returns (uint, bool) {\n        require(index < getPlanterOwnedTreeCounter(planter));\n        return (planters[planter].account.ownedTree[index].index, planters[planter].account.ownedTree[index].active);\n    }\n    //获取种树请求者名下指定树\n    function getAskerOwnedTree(uint asker, uint index) public view returns (uint, bool) {\n        require(index < getAskerOwnedTreeCounter(asker));\n        return (askers[asker].account.ownedTree[index].index, askers[asker].account.ownedTree[index].active);\n    }\n\n    function getPlanterOrder(uint planter, uint index) public view returns (uint) {\n        require(index < getPlanterOrderCounter(planter));\n        return planters[planter].account.orders[index];\n    }\n\n    function getAskerOrder(uint asker, uint index) public view returns (uint) {\n        require(index < getAskerOrderCounter(asker));\n        return askers[asker].account.orders[index];\n    }\n    //获取种树请求者发出的指定交易\n    function getAskerCreateOrder(uint asker, uint index) public view returns (uint) {\n        require(index < getAskerCreateOrderCounter(asker));\n        return askers[asker].sendOrder[index];\n    }\n\n\n\n}",
  "sourcePath": "/home/wangld/Desktop/ethereum/PlantTree.eth/contracts/Account.sol",
  "compiler": {
    "name": "solc",
    "version": "0.4.24+commit.e67f0147.Emscripten.clang"
  },
  "schemaVersion": "2.0.1",
  "updatedAt": "2018-12-30T02:05:27.148Z"
}