{
  "contractName": "Manager",
  "abi": [
    {
      "constant": true,
      "inputs": [
        {
          "name": "asker",
          "type": "uint256"
        },
        {
          "name": "index",
          "type": "uint256"
        }
      ],
      "name": "getAskerOwnedTree",
      "outputs": [
        {
          "name": "",
          "type": "uint256"
        },
        {
          "name": "",
          "type": "bool"
        }
      ],
      "payable": false,
      "stateMutability": "view",
      "type": "function"
    },
    {
      "constant": true,
      "inputs": [
        {
          "name": "asker",
          "type": "uint256"
        },
        {
          "name": "index",
          "type": "uint256"
        }
      ],
      "name": "getAskerCreateOrder",
      "outputs": [
        {
          "name": "",
          "type": "uint256"
        }
      ],
      "payable": false,
      "stateMutability": "view",
      "type": "function"
    },
    {
      "constant": true,
      "inputs": [
        {
          "name": "index",
          "type": "uint256"
        }
      ],
      "name": "getAskerOwnedTreeCounter",
      "outputs": [
        {
          "name": "",
          "type": "uint256"
        }
      ],
      "payable": false,
      "stateMutability": "view",
      "type": "function"
    },
    {
      "constant": true,
      "inputs": [
        {
          "name": "index",
          "type": "uint256"
        }
      ],
      "name": "getAskerCreateOrderCounter",
      "outputs": [
        {
          "name": "",
          "type": "uint256"
        }
      ],
      "payable": false,
      "stateMutability": "view",
      "type": "function"
    },
    {
      "constant": true,
      "inputs": [
        {
          "name": "owner",
          "type": "address"
        }
      ],
      "name": "getAskerIndex",
      "outputs": [
        {
          "name": "",
          "type": "uint256"
        }
      ],
      "payable": false,
      "stateMutability": "view",
      "type": "function"
    },
    {
      "constant": true,
      "inputs": [
        {
          "name": "index",
          "type": "uint256"
        }
      ],
      "name": "getAskerAddress",
      "outputs": [
        {
          "name": "",
          "type": "address"
        }
      ],
      "payable": false,
      "stateMutability": "view",
      "type": "function"
    },
    {
      "constant": true,
      "inputs": [
        {
          "name": "index",
          "type": "uint256"
        }
      ],
      "name": "getPlanterOrderCounter",
      "outputs": [
        {
          "name": "",
          "type": "uint256"
        }
      ],
      "payable": false,
      "stateMutability": "view",
      "type": "function"
    },
    {
      "constant": true,
      "inputs": [
        {
          "name": "planter",
          "type": "uint256"
        },
        {
          "name": "index",
          "type": "uint256"
        }
      ],
      "name": "getPlanterTree",
      "outputs": [
        {
          "name": "",
          "type": "uint256"
        }
      ],
      "payable": false,
      "stateMutability": "view",
      "type": "function"
    },
    {
      "constant": true,
      "inputs": [
        {
          "name": "index",
          "type": "uint256"
        }
      ],
      "name": "getAskerOrderCounter",
      "outputs": [
        {
          "name": "",
          "type": "uint256"
        }
      ],
      "payable": false,
      "stateMutability": "view",
      "type": "function"
    },
    {
      "constant": false,
      "inputs": [],
      "name": "createAsker",
      "outputs": [],
      "payable": false,
      "stateMutability": "nonpayable",
      "type": "function"
    },
    {
      "constant": true,
      "inputs": [
        {
          "name": "index",
          "type": "uint256"
        }
      ],
      "name": "getOrdersAddr",
      "outputs": [
        {
          "name": "",
          "type": "address"
        },
        {
          "name": "",
          "type": "address"
        },
        {
          "name": "",
          "type": "uint256"
        },
        {
          "name": "",
          "type": "bool"
        }
      ],
      "payable": false,
      "stateMutability": "view",
      "type": "function"
    },
    {
      "constant": true,
      "inputs": [
        {
          "name": "index",
          "type": "uint256"
        },
        {
          "name": "treeMsg",
          "type": "string"
        }
      ],
      "name": "verifyTreeMessage",
      "outputs": [
        {
          "name": "",
          "type": "bool"
        }
      ],
      "payable": false,
      "stateMutability": "view",
      "type": "function"
    },
    {
      "constant": true,
      "inputs": [
        {
          "name": "planter",
          "type": "uint256"
        },
        {
          "name": "index",
          "type": "uint256"
        }
      ],
      "name": "getPlanterOrder",
      "outputs": [
        {
          "name": "",
          "type": "uint256"
        }
      ],
      "payable": false,
      "stateMutability": "view",
      "type": "function"
    },
    {
      "constant": true,
      "inputs": [
        {
          "name": "owner",
          "type": "address"
        }
      ],
      "name": "getPlanterIndex",
      "outputs": [
        {
          "name": "",
          "type": "uint256"
        }
      ],
      "payable": false,
      "stateMutability": "view",
      "type": "function"
    },
    {
      "constant": true,
      "inputs": [
        {
          "name": "index",
          "type": "uint256"
        }
      ],
      "name": "getPlanterOwnedTreeCounter",
      "outputs": [
        {
          "name": "",
          "type": "uint256"
        }
      ],
      "payable": false,
      "stateMutability": "view",
      "type": "function"
    },
    {
      "constant": true,
      "inputs": [
        {
          "name": "index",
          "type": "uint256"
        }
      ],
      "name": "getPlanterTreeCounter",
      "outputs": [
        {
          "name": "",
          "type": "uint256"
        }
      ],
      "payable": false,
      "stateMutability": "view",
      "type": "function"
    },
    {
      "constant": false,
      "inputs": [],
      "name": "createPlanter",
      "outputs": [],
      "payable": false,
      "stateMutability": "nonpayable",
      "type": "function"
    },
    {
      "constant": true,
      "inputs": [],
      "name": "getAskerCounter",
      "outputs": [
        {
          "name": "",
          "type": "uint256"
        }
      ],
      "payable": false,
      "stateMutability": "view",
      "type": "function"
    },
    {
      "constant": true,
      "inputs": [
        {
          "name": "index",
          "type": "uint256"
        }
      ],
      "name": "getTree",
      "outputs": [
        {
          "name": "",
          "type": "string"
        }
      ],
      "payable": false,
      "stateMutability": "view",
      "type": "function"
    },
    {
      "constant": true,
      "inputs": [
        {
          "name": "planter",
          "type": "uint256"
        },
        {
          "name": "index",
          "type": "uint256"
        }
      ],
      "name": "getPlanterOwnedTree",
      "outputs": [
        {
          "name": "",
          "type": "uint256"
        },
        {
          "name": "",
          "type": "bool"
        }
      ],
      "payable": false,
      "stateMutability": "view",
      "type": "function"
    },
    {
      "constant": true,
      "inputs": [],
      "name": "getPlanterCounter",
      "outputs": [
        {
          "name": "",
          "type": "uint256"
        }
      ],
      "payable": false,
      "stateMutability": "view",
      "type": "function"
    },
    {
      "constant": true,
      "inputs": [
        {
          "name": "index",
          "type": "uint256"
        }
      ],
      "name": "getPlanterAddress",
      "outputs": [
        {
          "name": "",
          "type": "address"
        }
      ],
      "payable": false,
      "stateMutability": "view",
      "type": "function"
    },
    {
      "constant": true,
      "inputs": [
        {
          "name": "asker",
          "type": "uint256"
        },
        {
          "name": "index",
          "type": "uint256"
        }
      ],
      "name": "getAskerOrder",
      "outputs": [
        {
          "name": "",
          "type": "uint256"
        }
      ],
      "payable": false,
      "stateMutability": "view",
      "type": "function"
    },
    {
      "constant": false,
      "inputs": [
        {
          "name": "treeName",
          "type": "string"
        },
        {
          "name": "treeFullMess",
          "type": "bytes32"
        }
      ],
      "name": "_plantTree",
      "outputs": [],
      "payable": false,
      "stateMutability": "nonpayable",
      "type": "function"
    },
    {
      "constant": false,
      "inputs": [
        {
          "name": "planter",
          "type": "address"
        }
      ],
      "name": "_createOrder",
      "outputs": [],
      "payable": true,
      "stateMutability": "payable",
      "type": "function"
    },
    {
      "constant": false,
      "inputs": [
        {
          "name": "treeIndex",
          "type": "uint256"
        },
        {
          "name": "orderIndex",
          "type": "uint256"
        }
      ],
      "name": "_finishOrder",
      "outputs": [],
      "payable": false,
      "stateMutability": "nonpayable",
      "type": "function"
    }
  ],
  "bytecode": "0x60806040526000805560006002556001600455600160075534801561002357600080fd5b50611fee806100336000396000f300608060405260043610610154576000357c0100000000000000000000000000000000000000000000000000000000900463ffffffff16806302cf1b95146101595780630d192117146101af5780630d78d724146101fa5780631af7118f1461027157806338e5b7af146102b25780633f9819b5146102f3578063538525de1461034a5780635774fe8214610380578063588713a6146103ed57806360b150651461042e57806361f4fec1146104795780638dc6a650146104ba5780639007f1e4146104d1578063910c9074146105835780639756fa811461060e57806397ec8f7e146106595780639bc5900914610690578063a53977cb146106e7578063ac864daa14610728578063afe8714b14610769578063b37ed53b14610780578063d56e2101146107ab578063d59cbd1b14610851578063dbf25289146108a7578063e0034121146108d2578063fe1204571461093f575b600080fd5b34801561016557600080fd5b5061018e600480360381019080803590602001909291908035906020019092919050505061098a565b60405180838152602001821515151581526020019250505060405180910390f35b3480156101bb57600080fd5b506101e46004803603810190808035906020019092919080359060200190929190505050610a17565b6040518082815260200191505060405180910390f35b34801561020657600080fd5b5061026f600480360381019080803590602001908201803590602001908080601f01602080910402602001604051908101604052809392919081815260200183838082843782019150505050505091929192908035600019169060200190929190505050610a5f565b005b34801561027d57600080fd5b5061029c60048036038101908080359060200190929190505050610af2565b6040518082815260200191505060405180910390f35b3480156102be57600080fd5b506102dd60048036038101908080359060200190929190505050610b25565b6040518082815260200191505060405180910390f35b3480156102ff57600080fd5b50610334600480360381019080803573ffffffffffffffffffffffffffffffffffffffff169060200190929190505050610b55565b6040518082815260200191505060405180910390f35b61037e600480360381019080803573ffffffffffffffffffffffffffffffffffffffff169060200190929190505050610bec565b005b34801561038c57600080fd5b506103ab60048036038101908080359060200190929190505050610cbf565b604051808273ffffffffffffffffffffffffffffffffffffffff1673ffffffffffffffffffffffffffffffffffffffff16815260200191505060405180910390f35b3480156103f957600080fd5b5061041860048036038101908080359060200190929190505050610d12565b6040518082815260200191505060405180910390f35b34801561043a57600080fd5b506104636004803603810190808035906020019092919080359060200190929190505050610d45565b6040518082815260200191505060405180910390f35b34801561048557600080fd5b506104a460048036038101908080359060200190929190505050610d8d565b6040518082815260200191505060405180910390f35b3480156104c657600080fd5b506104cf610dc0565b005b3480156104dd57600080fd5b506104fc60048036038101908080359060200190929190505050610f4c565b604051808573ffffffffffffffffffffffffffffffffffffffff1673ffffffffffffffffffffffffffffffffffffffff1681526020018473ffffffffffffffffffffffffffffffffffffffff1673ffffffffffffffffffffffffffffffffffffffff1681526020018381526020018215151515815260200194505050505060405180910390f35b34801561058f57600080fd5b506105f460048036038101908080359060200190929190803590602001908201803590602001908080601f0160208091040260200160405190810160405280939291908181526020018383808284378201915050505050509192919290505050611033565b604051808215151515815260200191505060405180910390f35b34801561061a57600080fd5b5061064360048036038101908080359060200190929190803590602001909291905050506111c7565b6040518082815260200191505060405180910390f35b34801561066557600080fd5b5061068e6004803603810190808035906020019092919080359060200190929190505050611212565b005b34801561069c57600080fd5b506106d1600480360381019080803573ffffffffffffffffffffffffffffffffffffffff1690602001909291905050506112d1565b6040518082815260200191505060405180910390f35b3480156106f357600080fd5b5061071260048036038101908080359060200190929190505050611368565b6040518082815260200191505060405180910390f35b34801561073457600080fd5b506107536004803603810190808035906020019092919050505061139b565b6040518082815260200191505060405180910390f35b34801561077557600080fd5b5061077e6113cb565b005b34801561078c57600080fd5b50610795611557565b6040518082815260200191505060405180910390f35b3480156107b757600080fd5b506107d660048036038101908080359060200190929190505050611564565b6040518080602001828103825283818151815260200191508051906020019080838360005b838110156108165780820151818401526020810190506107fb565b50505050905090810190601f1680156108435780820380516001836020036101000a031916815260200191505b509250505060405180910390f35b34801561085d57600080fd5b50610886600480360381019080803590602001909291908035906020019092919050505061162f565b60405180838152602001821515151581526020019250505060405180910390f35b3480156108b357600080fd5b506108bc6116bc565b6040518082815260200191505060405180910390f35b3480156108de57600080fd5b506108fd600480360381019080803590602001909291905050506116c9565b604051808273ffffffffffffffffffffffffffffffffffffffff1673ffffffffffffffffffffffffffffffffffffffff16815260200191505060405180910390f35b34801561094b57600080fd5b50610974600480360381019080803590602001909291908035906020019092919050505061171c565b6040518082815260200191505060405180910390f35b60008061099684610af2565b831015156109a357600080fd5b6009600085815260200190815260200160002060000160040160008481526020019081526020016000206000015460096000868152602001908152602001600020600001600401600085815260200190815260200160002060010160009054906101000a900460ff16915091509250929050565b6000610a2283610b25565b82101515610a2f57600080fd5b60096000848152602001908152602001600020600701600083815260200190815260200160002054905092915050565b600080610a6b336112d1565b9150610a78338585611767565b9050806006600084815260200190815260200160002060070160006006600086815260200190815260200160002060060154815260200190815260200160002081905550610ac68282611948565b600660008381526020019081526020016000206006016000815480929190600101919050555050505050565b600060075482101515610b0457600080fd5b60096000838152602001908152602001600020600001600101549050919050565b600060075482101515610b3757600080fd5b60096000838152602001908152602001600020600601549050919050565b600080600860008473ffffffffffffffffffffffffffffffffffffffff1673ffffffffffffffffffffffffffffffffffffffff1681526020019081526020016000205414151515610ba557600080fd5b600860008373ffffffffffffffffffffffffffffffffffffffff1673ffffffffffffffffffffffffffffffffffffffff168152602001908152602001600020549050919050565b6000806000610bfa846112d1565b9250610c0533610b55565b9150610c118434611a21565b90508060066000858152602001908152602001600020600001600301600060066000878152602001908152602001600020600001600201600081548092919060010191905055815260200190815260200160002081905550806009600084815260200190815260200160002060070160006009600086815260200190815260200160002060060160008154809291906001019190505581526020019081526020016000208190555050505050565b600060075482101515610cd157600080fd5b6009600083815260200190815260200160002060000160000160009054906101000a900473ffffffffffffffffffffffffffffffffffffffff169050919050565b600060045482101515610d2457600080fd5b60066000838152602001908152602001600020600001600201549050919050565b6000610d508361139b565b82101515610d5d57600080fd5b60066000848152602001908152602001600020600701600083815260200190815260200160002054905092915050565b600060075482101515610d9f57600080fd5b60096000838152602001908152602001600020600001600201549050919050565b6000600860003373ffffffffffffffffffffffffffffffffffffffff1673ffffffffffffffffffffffffffffffffffffffff16815260200190815260200160002054141515610e0e57600080fd5b6060604051908101604052806060604051908101604052803373ffffffffffffffffffffffffffffffffffffffff16815260200160008152602001600081525081526020016007548152602001600081525060096000600754815260200190815260200160002060008201518160000160008201518160000160006101000a81548173ffffffffffffffffffffffffffffffffffffffff021916908373ffffffffffffffffffffffffffffffffffffffff160217905550602082015181600101556040820151816002015550506020820151816005015560408201518160060155905050600754600860003373ffffffffffffffffffffffffffffffffffffffff1673ffffffffffffffffffffffffffffffffffffffff16815260200190815260200160002081905550600760008154809291906001019190505550565b60008060008060025485101515610f6257600080fd5b6003600086815260200190815260200160002060000160009054906101000a900473ffffffffffffffffffffffffffffffffffffffff166003600087815260200190815260200160002060010160009054906101000a900473ffffffffffffffffffffffffffffffffffffffff16600360008881526020019081526020016000206002015460006001811115610ff457fe5b600360008a815260200190815260200160002060030160009054906101000a900460ff16600181111561102357fe5b1493509350935093509193509193565b600080548310151561104457600080fd5b816040516020018082805190602001908083835b60208310151561107d5780518252602082019150602081019050602083039250611058565b6001836020036101000a0380198251168184511680821785525050505050509050019150506040516020818303038152906040526040518082805190602001908083835b6020831015156110e657805182526020820191506020810190506020830392506110c1565b6001836020036101000a03801982511681845116808217855250505050505090500191505060405180910390206040516020018082600019166000191681526020019150506040516020818303038152906040526040518082805190602001908083835b60208310151561116f578051825260208201915060208101905060208303925061114a565b6001836020036101000a03801982511681845116808217855250505050505090500191505060405180910390206000191660016000858152602001908152602001600020600201600101546000191614905092915050565b60006111d283610d12565b821015156111df57600080fd5b60066000848152602001908152602001600020600001600301600083815260200190815260200160002054905092915050565b600080600080600061122386611b6e565b925061122e336112d1565b915061125d8360010160009054906101000a900473ffffffffffffffffffffffffffffffffffffffff16610b55565b9050611269828861162f565b809550819650505083151561127d57600080fd5b6112ab858460010160009054906101000a900473ffffffffffffffffffffffffffffffffffffffff16611b9a565b6112b486611c73565b6112be8186611dd2565b6112c88288611eab565b50505050505050565b600080600560008473ffffffffffffffffffffffffffffffffffffffff1673ffffffffffffffffffffffffffffffffffffffff168152602001908152602001600020541415151561132157600080fd5b600560008373ffffffffffffffffffffffffffffffffffffffff1673ffffffffffffffffffffffffffffffffffffffff168152602001908152602001600020549050919050565b60006004548210151561137a57600080fd5b60066000838152602001908152602001600020600001600101549050919050565b6000600454821015156113ad57600080fd5b60066000838152602001908152602001600020600601549050919050565b6000600560003373ffffffffffffffffffffffffffffffffffffffff1673ffffffffffffffffffffffffffffffffffffffff1681526020019081526020016000205414151561141957600080fd5b6060604051908101604052806060604051908101604052803373ffffffffffffffffffffffffffffffffffffffff16815260200160008152602001600081525081526020016004548152602001600081525060066000600454815260200190815260200160002060008201518160000160008201518160000160006101000a81548173ffffffffffffffffffffffffffffffffffffffff021916908373ffffffffffffffffffffffffffffffffffffffff160217905550602082015181600101556040820151816002015550506020820151816005015560408201518160060155905050600454600560003373ffffffffffffffffffffffffffffffffffffffff1673ffffffffffffffffffffffffffffffffffffffff16815260200190815260200160002081905550600460008154809291906001019190505550565b6000600160075403905090565b60606000548210151561157657600080fd5b600160008381526020019081526020016000206002016000018054600181600116156101000203166002900480601f0160208091040260200160405190810160405280929190818152602001828054600181600116156101000203166002900480156116235780601f106115f857610100808354040283529160200191611623565b820191906000526020600020905b81548152906001019060200180831161160657829003601f168201915b50505050509050919050565b60008061163b84611368565b8310151561164857600080fd5b6006600085815260200190815260200160002060000160040160008481526020019081526020016000206000015460066000868152602001908152602001600020600001600401600085815260200190815260200160002060010160009054906101000a900460ff16915091509250929050565b6000600160045403905090565b6000600454821015156116db57600080fd5b6006600083815260200190815260200160002060000160000160009054906101000a900473ffffffffffffffffffffffffffffffffffffffff169050919050565b600061172783610d8d565b8210151561173457600080fd5b60096000848152602001908152602001600020600001600301600083815260200190815260200160002054905092915050565b60006060604051908101604052808573ffffffffffffffffffffffffffffffffffffffff1681526020018573ffffffffffffffffffffffffffffffffffffffff1681526020016040805190810160405280868152602001856040516020018082600019166000191681526020019150506040516020818303038152906040526040518082805190602001908083835b60208310151561181b57805182526020820191506020810190506020830392506117f6565b6001836020036101000a038019825116818451168082178552505050505050905001915050604051809103902060001916815250815250600160008054815260200190815260200160002060008201518160000160006101000a81548173ffffffffffffffffffffffffffffffffffffffff021916908373ffffffffffffffffffffffffffffffffffffffff16021790555060208201518160010160006101000a81548173ffffffffffffffffffffffffffffffffffffffff021916908373ffffffffffffffffffffffffffffffffffffffff1602179055506040820151816002016000820151816000019080519060200190611919929190611f1d565b506020820151816001019060001916905550509050506000808154809291906001019190505590509392505050565b816004548110151561195957600080fd5b816000548110151561196a57600080fd5b604080519081016040528084815260200160011515815250600660008681526020019081526020016000206000016004016000600660008881526020019081526020016000206000016001015481526020019081526020016000206000820151816000015560208201518160010160006101000a81548160ff021916908315150217905550905050600660008581526020019081526020016000206000016001016000815480929190600101919050555050505050565b60006080604051908101604052808473ffffffffffffffffffffffffffffffffffffffff1681526020013373ffffffffffffffffffffffffffffffffffffffff168152602001838152602001600180811115611a7957fe5b81525060036000600254815260200190815260200160002060008201518160000160006101000a81548173ffffffffffffffffffffffffffffffffffffffff021916908373ffffffffffffffffffffffffffffffffffffffff16021790555060208201518160010160006101000a81548173ffffffffffffffffffffffffffffffffffffffff021916908373ffffffffffffffffffffffffffffffffffffffff1602179055506040820151816002015560608201518160030160006101000a81548160ff02191690836001811115611b4d57fe5b02179055509050506002600081548092919060010191905055905092915050565b600060025482101515611b8057600080fd5b600360008381526020019081526020016000209050919050565b60005482101515611baa57600080fd5b3373ffffffffffffffffffffffffffffffffffffffff166001600084815260200190815260200160002060010160009054906101000a900473ffffffffffffffffffffffffffffffffffffffff1673ffffffffffffffffffffffffffffffffffffffff16141515611c1a57600080fd5b806001600084815260200190815260200160002060010160006101000a81548173ffffffffffffffffffffffffffffffffffffffff021916908373ffffffffffffffffffffffffffffffffffffffff1602179055505050565b60025481101515611c8357600080fd5b3373ffffffffffffffffffffffffffffffffffffffff166003600083815260200190815260200160002060000160009054906101000a900473ffffffffffffffffffffffffffffffffffffffff1673ffffffffffffffffffffffffffffffffffffffff16141515611cf357600080fd5b600180811115611cff57fe5b6003600083815260200190815260200160002060030160009054906101000a900460ff166001811115611d2e57fe5b141515611d3a57600080fd5b3373ffffffffffffffffffffffffffffffffffffffff166108fc60036000848152602001908152602001600020600201549081150290604051600060405180830381858888f19350505050158015611d96573d6000803e3d6000fd5b5060006003600083815260200190815260200160002060030160006101000a81548160ff02191690836001811115611dca57fe5b021790555050565b8160075481101515611de357600080fd5b8160005481101515611df457600080fd5b604080519081016040528084815260200160011515815250600960008681526020019081526020016000206000016004016000600960008881526020019081526020016000206000016001015481526020019081526020016000206000820151816000015560208201518160010160006101000a81548160ff021916908315150217905550905050600960008581526020019081526020016000206000016001016000815480929190600101919050555050505050565b8160045481101515611ebc57600080fd5b611ec583611368565b82101515611ed257600080fd5b600060066000858152602001908152602001600020600001600401600084815260200190815260200160002060010160006101000a81548160ff021916908315150217905550505050565b828054600181600116156101000203166002900490600052602060002090601f016020900481019282601f10611f5e57805160ff1916838001178555611f8c565b82800160010185558215611f8c579182015b82811115611f8b578251825591602001919060010190611f70565b5b509050611f999190611f9d565b5090565b611fbf91905b80821115611fbb576000816000905550600101611fa3565b5090565b905600a165627a7a7230582091eccd295d008b93e23fe9f374f57d2f71f96a162b9b8a8e48aaab61faf079d10029",
  "source": "pragma solidity ^0.4.17;\nimport \"./Account.sol\";\nimport \"./Order.sol\";\nimport \"./TreeMessage.sol\";\n\ncontract Manager is TreeMessage, Order, Account {\n    //Tree Manager\n    function _plantTree(string treeName, bytes32 treeFullMess) public {\n        uint planterIndex = getPlanterIndex(msg.sender);\n        uint treeIndex = plantTree(msg.sender, treeName, treeFullMess);\n        planters[planterIndex].plantedTree[planters[planterIndex].treeCounter] = treeIndex;\n        _addPlanterOwnedTree(planterIndex, treeIndex);\n        planters[planterIndex].treeCounter++;\n    }\n\n    function _addPlanterOwnedTree(uint planterIndex, uint treeIndex) internal validPlanter(planterIndex) validTree(treeIndex){\n        planters[planterIndex].account.ownedTree[planters[planterIndex].account.treeCounter] = OwnedIndex(treeIndex, true);\n        planters[planterIndex].account.treeCounter++;\n    }\n\n    function _addAskerOwnedTree(uint askerIndex, uint treeIndex) internal validAsker(askerIndex) validTree(treeIndex) {\n        askers[askerIndex].account.ownedTree[askers[askerIndex].account.treeCounter] = OwnedIndex(treeIndex, true);    \n        askers[askerIndex].account.treeCounter++;\n    }\n\n    function _removePlanterOwnedTreeAt(uint planterIndex, uint treeIndex) internal validPlanter(planterIndex) {\n        require(treeIndex < getPlanterOwnedTreeCounter(planterIndex));\n        planters[planterIndex].account.ownedTree[treeIndex].active = false;\n    }\n    //Order Manager\n    function _createOrder(address planter) public payable {\n        uint planterId = getPlanterIndex(planter);\n        uint askerId = getAskerIndex(msg.sender);\n        uint orderId = createOrder(planter, msg.value);\n        planters[planterId].account.orders[planters[planterId].account.orderCounter++] = orderId;\n        askers[askerId].sendOrder[askers[askerId].orderCounter++] = orderId;\n    }\n\n    function _finishOrder(uint treeIndex, uint orderIndex) public {\n        uint temp_treeIndex;\n        bool ownerJudge;\n\n        order storage myorder = getOrder(orderIndex);\n        uint planterId = getPlanterIndex(msg.sender);\n        uint askerId = getAskerIndex(myorder.asker);\n\n        (temp_treeIndex, ownerJudge) = getPlanterOwnedTree(planterId, treeIndex);\n        require(ownerJudge);\n        changeOwner(temp_treeIndex, myorder.asker);\n        finishOrder(orderIndex);\n        _addAskerOwnedTree(askerId, temp_treeIndex);\n        _removePlanterOwnedTreeAt(planterId, treeIndex);\n        \n    }\n\n\n    \n}\n",
  "sourcePath": "/home/wangld/Desktop/ethereum/PlantTree.eth/contracts/Manager.sol",
  "compiler": {
    "name": "solc",
    "version": "0.4.24+commit.e67f0147.Emscripten.clang"
  },
  "schemaVersion": "2.0.1",
  "updatedAt": "2018-12-30T02:05:27.647Z"
}