{
  "contractName": "Order",
  "abi": [
    {
      "constant": true,
      "inputs": [
        {
          "name": "index",
          "type": "uint256"
        }
      ],
      "name": "getOrdersAddr",
      "outputs": [
        {
          "name": "",
          "type": "address"
        },
        {
          "name": "",
          "type": "address"
        },
        {
          "name": "",
          "type": "uint256"
        },
        {
          "name": "",
          "type": "bool"
        }
      ],
      "payable": false,
      "stateMutability": "view",
      "type": "function"
    }
  ],
  "bytecode": "0x60806040526000805534801561001457600080fd5b5061020b806100246000396000f300608060405260043610610041576000357c0100000000000000000000000000000000000000000000000000000000900463ffffffff1680639007f1e414610046575b600080fd5b34801561005257600080fd5b50610071600480360381019080803590602001909291905050506100f8565b604051808573ffffffffffffffffffffffffffffffffffffffff1673ffffffffffffffffffffffffffffffffffffffff1681526020018473ffffffffffffffffffffffffffffffffffffffff1673ffffffffffffffffffffffffffffffffffffffff1681526020018381526020018215151515815260200194505050505060405180910390f35b6000806000806000548510151561010e57600080fd5b6001600086815260200190815260200160002060000160009054906101000a900473ffffffffffffffffffffffffffffffffffffffff166001600087815260200190815260200160002060010160009054906101000a900473ffffffffffffffffffffffffffffffffffffffff166001600088815260200190815260200160002060020154600060018111156101a057fe5b600160008a815260200190815260200160002060030160009054906101000a900460ff1660018111156101cf57fe5b14935093509350935091935091935600a165627a7a723058203840caad3a44ea868140d3ae1127018c4abc77f01ead8609a71786eea9ced6340029",
  "source": "pragma solidity ^0.4.17;\n\n\ncontract Order {\n    enum state {finished, unfinished}\n\n    struct order {\n        address planter;\n        address asker;\n        uint price;\n        state st;\n    }\n\n    uint internal orderCounter = 0;\n\n    mapping (uint=>order) internal orders;\n\n    function createOrder(address planter, uint price) internal returns(uint) {\n        orders[orderCounter] = order(planter, msg.sender, price, state.unfinished);\n        return orderCounter++;\n    }\n\n    function finishOrder(uint index) internal {\n        require(index < orderCounter);\n        require(orders[index].planter == msg.sender);\n        require(orders[index].st == state.unfinished);\n        msg.sender.transfer(orders[index].price);\n        orders[index].st = state.finished;\n    }\n\n    function getOrder(uint index) internal view returns(order storage) {\n        require(index < orderCounter);\n        return orders[index];\n    }\n\n    function getOrdersAddr(uint index) public view returns (address, address, uint, bool) {\n        require(index < orderCounter);\n        return (orders[index].planter, orders[index].asker, orders[index].price, orders[index].st == state.finished);\n    }\n\n}",
  "sourcePath": "/home/wangld/Desktop/ethereum/PlantTree.eth/contracts/Order.sol",
  "compiler": {
    "name": "solc",
    "version": "0.4.24+commit.e67f0147.Emscripten.clang"
  },
  "schemaVersion": "2.0.1",
  "updatedAt": "2018-12-30T02:05:27.154Z"
}