{
  "contractName": "TreeMessage",
  "abi": [
    {
      "constant": true,
      "inputs": [
        {
          "name": "index",
          "type": "uint256"
        }
      ],
      "name": "getTree",
      "outputs": [
        {
          "name": "",
          "type": "string"
        }
      ],
      "payable": false,
      "stateMutability": "view",
      "type": "function"
    },
    {
      "constant": true,
      "inputs": [
        {
          "name": "index",
          "type": "uint256"
        },
        {
          "name": "treeMsg",
          "type": "string"
        }
      ],
      "name": "verifyTreeMessage",
      "outputs": [
        {
          "name": "",
          "type": "bool"
        }
      ],
      "payable": false,
      "stateMutability": "view",
      "type": "function"
    }
  ],
  "bytecode": "0x60806040526000805534801561001457600080fd5b5061040d806100246000396000f30060806040526004361061004c576000357c0100000000000000000000000000000000000000000000000000000000900463ffffffff168063910c907414610051578063d56e2101146100dc575b600080fd5b34801561005d57600080fd5b506100c260048036038101908080359060200190929190803590602001908201803590602001908080601f0160208091040260200160405190810160405280939291908181526020018383808284378201915050505050509192919290505050610182565b604051808215151515815260200191505060405180910390f35b3480156100e857600080fd5b5061010760048036038101908080359060200190929190505050610316565b6040518080602001828103825283818151815260200191508051906020019080838360005b8381101561014757808201518184015260208101905061012c565b50505050905090810190601f1680156101745780820380516001836020036101000a031916815260200191505b509250505060405180910390f35b600080548310151561019357600080fd5b816040516020018082805190602001908083835b6020831015156101cc57805182526020820191506020810190506020830392506101a7565b6001836020036101000a0380198251168184511680821785525050505050509050019150506040516020818303038152906040526040518082805190602001908083835b6020831015156102355780518252602082019150602081019050602083039250610210565b6001836020036101000a03801982511681845116808217855250505050505090500191505060405180910390206040516020018082600019166000191681526020019150506040516020818303038152906040526040518082805190602001908083835b6020831015156102be5780518252602082019150602081019050602083039250610299565b6001836020036101000a03801982511681845116808217855250505050505090500191505060405180910390206000191660016000858152602001908152602001600020600201600101546000191614905092915050565b60606000548210151561032857600080fd5b600160008381526020019081526020016000206002016000018054600181600116156101000203166002900480601f0160208091040260200160405190810160405280929190818152602001828054600181600116156101000203166002900480156103d55780601f106103aa576101008083540402835291602001916103d5565b820191906000526020600020905b8154815290600101906020018083116103b857829003601f168201915b505050505090509190505600a165627a7a72305820e79e5702ebde29d3ecac024106826068b6089d47ae5edbe118b65b8259a729890029",
  "source": "pragma solidity ^0.4.16;\ncontract TreeMessage {\n\n    struct message{\n        string treeName;\n        bytes32 treeFullMessage;\n    }\n\n    struct tree{\n        address planter;\n        address owner;\n        message treeContent;\n    }\n\n    uint treeCounter = 0;\n    \n    mapping (uint=>tree) Trees;\n\n    modifier validTree(uint index){\n        require(index < treeCounter);\n        _;\n    }\n\n    function plantTree(address planter, string treeName, bytes32 treeMess) internal returns(uint){\n        Trees[treeCounter] = tree(planter, planter, message(treeName, keccak256(abi.encodePacked(treeMess))));\n        return treeCounter++;\n    }\n\n    function getTree(uint index) public view returns(string) {\n        require(index < treeCounter);\n        return Trees[index].treeContent.treeName;\n    }\n\n    function changeOwner(uint index, address targetOwner) internal {\n        require(index < treeCounter);\n        require(Trees[index].owner == msg.sender);\n        Trees[index].owner = targetOwner;\n    }\n\n    function verifyTreeMessage(uint index, string treeMsg) public view returns(bool){\n        require(index < treeCounter);\n        return(Trees[index].treeContent.treeFullMessage == keccak256(abi.encodePacked(keccak256(abi.encodePacked(treeMsg)))));\n    }\n\n}\n",
  "sourcePath": "/home/wangld/Desktop/ethereum/PlantTree.eth/contracts/TreeMessage.sol",
  "compiler": {
    "name": "solc",
    "version": "0.4.24+commit.e67f0147.Emscripten.clang"
  },
  "schemaVersion": "2.0.1",
  "updatedAt": "2018-12-30T02:05:27.154Z"
}